:020000040800F2
:1014000010050020C9140008FB140008B14C0008A6
:10141000FF14000801150008031500080000000073
:10142000000000000000000000000000051500089A
:10143000071500080000000009150008D94F000832
:101440000D1500080D1500080D1500080D150008F4
:101450000D1500080D1500080D1500080D150008E4
:101460000D1500080D1500080D1500080D150008D4
:101470000D1500080D1500080D1500080D150008C4
:101480000D1500080D1500080D1500080D150008B4
:101490000D1500080D1500080D1500080D150008A4
:1014A0000D1500080D1500080D1500080D15000894
:1014B0000D1500080348854600F056F8004800471F
:1014C0008D56000810050020114880F30888114847
:1014D0000168090E104A9142FFD11048104901607D
:1014E00010481149016011480F4901600B4810492B
:1014F00001601048804710480047FEE7FEE7FEE71E
:10150000FEE7FEE7FEE7FEE7FEE7FEE7FEE7000098
:1015100010050020040000001F0000001C10024005
:101520000000000418680040120000001C68004021
:101530000000000039500008B514000830B50B4613
:10154000014600202022012409E00D46D5409D429D
:1015500005D31D469540491B254695404019154623
:10156000521E002DF1DC30BD064C0125064E05E073
:10157000E36807CC2B430C3C98471034B442F7D3B4
:10158000FFF79CFF08580008285800080124234E44
:10159000E4030925224FED067078002812D00020C0
:1015A00070702048007800280CD01FA003F094FF32
:1015B0000C221C49224803F0C3FB642003F004FD05
:1015C00003F030FC2146284600F006F9002801D03F
:1015D000002200E001222146284603F062FB082198
:1015E000384600F0F9F8002801D0002200E001227E
:1015F0000821384603F055FB1021384600F0ECF87E
:10160000002801D0002200E001221021384603F01A
:1016100048FBE120800003F0D7FCBDE7D4000020A8
:1016200000040048F00000205041524120726563E0
:101630006569766564206F76657220A3A10D0A0046
:1016400000100008F8B503200121400403F0F6FB68
:10165000684600F0CAF80126F603684606800325AE
:10166000857010240927C470FF066946384603F0C8
:10167000B8FA3146384600F0B6F8684600F0B5F8DA
:101680003821684601808570C470054C6946204643
:1016900003F0A7FA3821204600F0A5F8F8BD0000B5
:1016A0000004004810B50A4A0020D269014692079A
:1016B00001D5012010BD074B074C4A00D2181288F3
:1016C000A24201D0022010BD491C0829F5D310BD4B
:1016D000002002400000FE1FFFFF000010B5FF21A8
:1016E0000024C901084803F037FA042800D0012477
:1016F0000548FF210902801C03F02EFA042800D0BF
:101700000124204610BD00000000FE1F70B50D4EE4
:101710000546304603F04EFA042812D10A4C2069DF
:10172000022108432061656120694021084320614E
:10173000304603F03FFA012803D02169034A1140E3
:10174000216170BDFF0F000000200240FD1F00005E
:1017500008490420CA68D20701D001207047CA682E
:10176000520701D502207047C968C906FBD503207E
:1017700070470000002002400248016980221143A6
:10178000016170470020024070B506460D460F20EB
:1017900003F010FA04280ED1074C206901210843F8
:1017A000206135800F2003F005FA012803D021695C
:1017B000024A1140216170BD00200240FE1F00005E
:1017C000034802494160034941607047230167456E
:1017D00000200240AB89EFCD0246D26800200A42C9
:1017E00000D001207047416170470021C94301804A
:1017F000022181700421C1707047C94301617047A3
:10180000555500000000000000000000000000002E
:1018100000000000000000000000000000000000C8
:1018200000000000000000000000000000000000B8
:1018300000000000000000000000000000000000A8
:101840000000000000000000000000000000000098
:104B50000000000000000000F0B507460E461048B7
:104B600000F028F8042819D10F4C0E4860600F4956
:104B70006160A060A16020690D4D2840206120691E
:104B80001021084320613E800F2000F013F8042814
:104B900004D0012802D0216929402161F0BD000024
:104BA000FF0F00002301674500200240AB89EFCDD5
:104BB000EF1F000018B50346FCF7CAFDFF2407E00D
:104BC00020460094401E0090FCD1FCF7C1FD5B1E06
:104BD000012803D0002B00D1052018BD002BEFD1F8
:104BE000FAE7F0B5CC78002223071B0FE40601D5C5
:104BF0008C7823430C782406240E1AD004680125EF
:104C00000E8895402E40AE420FD197000F26BE4031
:104C1000B4431E46BE403443CE78282E02D0482EE0
:104C200002D002E0456100E00561521C082AE6D38B
:104C300004600A88FF2A1CD94468002216460836F8
:104C40000125B5400E882E40AE420ED197000F26AA
:104C5000BE40B4431E46BE403443CE78282E00D119
:104C60004561CE78482E00D10561521C082AE5D353
:104C70004460F0BD4B0710B5DB0E9A40CC080F2105
:104C80009940002C06D0436A8B434362416A11432A
:104C9000416210BD036A8B430362016A11430162E2
:104CA00010BD002A01D001617047416170470000CA
:104CB00002A000F011FC00F0B5F800004861726439
:104CC0004661756C745F48616E646C657220696ED4
:104CD0000D0A000010B5164C0221204600F018FB0A
:104CE000002817D00221204600F0E4FA204600F008
:104CF00049FBC0B2FF230F4955280CD0FF280FD025
:104D00000A78FF2A11D0D2B20C2A0ED20A4B98543C
:104D1000521C0A7010BD0A78FF2AF4D1002002E06C
:104D20000B7006490120087010BD0B7010BD00000B
:104D300000380140E4000020F0000020D5000020F1
:104D4000F8B507469003050E14460E4600291DD0FF
:104D5000FCF736FDA802C019FCF7D8FC002D02D0E4
:104D60006D1EEDB2F6E73D46E003070C002E0BD0BA
:104D7000002407E06000315A2846FCF705FD641C5A
:104D8000A4B2AD1CBC42F5D3FCF7F6FCF8BD0000A4
:104D900030B5827801240178002A15D08B080E4A9C
:104DA0009B009A1813688907C90EFF258D40AB43F5
:104DB0004578AD072D0E8D401D4315600078C00667
:104DC000C00E8440054804E0C806C00E8440034875
:104DD0008030046030BD000000E400E000E100E04D
:104DE0008307FF22DB0E9A408907090E99400028AD
:104DF0000BDA0007000F0838830808489B001818D2
:104E0000C36993430B43C3617047830804489B0005
:104E10001818036893430B430360704700ED00E0EC
:104E200000E400E0BFF34F8F03490248C860BFF3BE
:104E30004F8FFEE70400FA0500ED00E0044A002968
:104E4000516901D0014300E0814351617047000086
:104E500000100240044A0029D16901D0014300E05A
:104E60008143D1617047000000100240044A0029CC
:104E7000116901D0014300E08143116170470000D6
:104E800000100240044A0029916901D0014300E06A
:104E9000814391617047000000100240044A0029DC
:104EA000D16801D0014300E08143D1607047000028
:104EB0000010024070B51F4D044668680C21084080
:104EC0001D49042803D0082818D00C282ED02160B2
:104ED00068681A490006000F0A5C2068D0406060CC
:104EE0006A685205520F8A5C0346D340A3606A6821
:104EF0009204520F895CC840E06070BD2868296840
:104F0000800E49026A68490F01231B04401C491C9A
:104F10001A4201D10A4A05E06A68920301D5094A9A
:104F200000E0054A5043FCF709FB00E0064820601A
:104F3000CEE700000010024000127A00C4000020FA
:104F4000001BB70000093D00409C000010B51C4844
:104F50000021026801231A43026002689207FCD50F
:104F6000012292024260426801231B049A4342607C
:104F70000368012212069343036003681F24A406FA
:104F8000A343036003680324A406234303600D4C7A
:104F90001223236003681343036002689201FCD567
:104FA0004268920892004260426802231A434260BB
:104FB00002E041680907890F0229FAD110BD0000FB
:104FC00000100240002002400249086008680028E2
:104FD000FCD17047EC00002003480168002902D092
:104FE0000168491E01607047EC00002070B5014661
:104FF0000E480068FCF7A2FA0D490025ED43401E5B
:10500000884203D9012000280AD0FEE7094C6061DC
:1050100003212846FFF7E4FE0020A061072020615D
:1050200000212846FFF7DCFE70BD0000C000002014
:10503000FFFFFF0000E000E010B51048016801220A
:105040001143016041680E4A1140416001680D4AF8
:10505000114001600168012292049143016041689E
:105060007F2212049143416001680903090B01602A
:105070009F2109048160FFF769FF10BD0010024005
:105080000000FFF0FFFFF6FEF0B50D4607460121D8
:1050900087B0C802FFF7F6FE1849174848670D2089
:1050A0006946087500244C750120887505A8FFF72E
:1050B0006FFE134E304600F055F8684600F0F0F8E9
:1050C00069460097029503940C743046019400F0F1
:1050D000ADF80121304600F035F801221146304686
:1050E00000F09AF80021304600F09EF80121304689
:1050F00000F02CF807B0F0BD0551000800000020BA
:10510000002C014010B50D4C0121204600F078F82C
:10511000002811D001212046FCF76FFB084C20210C
:105120002046FCF759FB002801D0002200E00122B4
:1051300020212046FFF7B5FD10BD0000002C0140E6
:1051400000040048C94389B2016170470029016821
:1051500002D00122114301E0014A11400160704771
:10516000FEFF0000204910B5884202D10121C4147D
:105170001BE001218907884206D101210846FFF77B
:1051800075FE0021012008E01849884208D101215C
:105190000220FFF76BFE00210220FFF767FE10BD23
:1051A0001349884209D1012144142046FFF776FEB5
:1051B00000212046FFF772FE10BD0E49884207D13C
:1051C00001210C042046FFF751FE00212046E4E7B0
:1051D0000949884202D101214C04E6E70749884287
:1051E000EAD101218C04E0E7002C014000040040DA
:1051F00000080140004001400044014000480140D7
:10520000024613690020D2680B400A40002B02D0EE
:10521000002A00D001207047002AC26801D00A434A
:1052200000E08A43C26070474162704730B502684F
:10523000154B164C92B2984207D0E504A84204D010
:10524000134DA84201D0A04204D17025AA438D88F5
:105250001543AAB20F4D2A408D891543AAB20260A8
:105260008A68C2620A688262984207D0A04205D06A
:10527000094A904202D0094A904201D1097C016357
:105280000121416130BD0000002C014000080140B7
:1052900000040040FFFC00000044014000480140C1
:1052A0000349816000210160C16041600174704761
:1052B000FFFF0000416170470029816902D001228F
:1052C000114301E0014A114081617047FEFF000077
:1052D00070B504460C48844208D101214D0428468B
:1052E000FFF7C4FD00212846FFF7C0FD07488442B0
:1052F00008D101218C032046FFF7D0FD0021204674
:10530000FFF7CCFD70BD00000044004000380140B4
:105310000246926800200A4200D001207047002A0D
:10532000026901D00A4300E08A430261704700002D
:105330007FB50446C0690D46FF21D0318843A98856
:10534000EA8811432A8902431143E161A0696A890D
:105350004109A889490110430843A0616846FFF745
:10536000A9FD0748844201D1029800E0039829680A
:10537000FCF7E4F801090007000F216260627FBDBD
:10538000004400404068C0B27047C9B20160704735
:105390004B21C9010160302181800021C180018140
:1053A0001822428181817047F0B50646464804279D
:1053B000464C87B00D46864238D101218803FFF75D
:1053C00061FD3046FFF784FF01A8FFF7E1FF01A967
:1053D00030460195FFF7ACFF01214804FFF72EFD91
:1053E00001210846FFF74EFD0921CD06012228467E
:1053F000FFF740FC01220A212846FFF73BFC70150D
:1054000069460880032088701820C8702846FFF776
:10541000E8FB301569460880CF702846FFF7E1FBAE
:105420001B20694608752A48E0623AE0294886420E
:1054300037D101214804FFF70DFD01A8FFF7A8FFB0
:1054400001A930460195FFF773FF01214804FFF7DA
:10545000F5FC01210846FFF715FD0925ED0601229F
:1054600002212846FFF706FC012203212846FFF708
:1054700001FC6846FCF7B9F969460F800320887083
:105480001820C8702846FFF7ACFB08206946088042
:10549000CF702846FFF7A5FB1C20694608750C480D
:1054A0002063012202210848FFF739FF01206946E5
:1054B0008875487505A8FFF76BFC01213046FFF79A
:1054C000FBFE07B0F0BD0000003801408000002066
:1054D000D54C0008004400400FB410B503A9044B9C
:1054E000044A029800F018F810BC08BC04B0184731
:1054F00069560008E800002002E008C8121F08C131
:10550000002AFAD170477047002001E001C1121F44
:10551000002AFBD170470000FFB58DB0044600257E
:1055200006E025280AD0109A0F999047641C6D1C3C
:1055300020780028F5D1284611B0F0BD00270121C0
:10554000484A009700E00743641C23780846203B44
:1055500098401042F7D120782E2817D10420074315
:105560006078641C2A280CD10E98641C02C8009133
:105570000E900BE000990A22514330394018641C08
:1055800000902078014630390929F3D92078002885
:10559000D1D0642808D0692806D075281ED0109A6A
:1055A0000F9990476D1C5BE00A200E99019001C98C
:1055B0000E91002802DA40422D2102E0390504D57F
:1055C0002B216A461172012103E0F90704D0202142
:1055D000F7E70BAE0B910DE00021FAE70A200E99D8
:1055E000019001C90E91F7E70199FBF7A7FF303150
:1055F000761E31700028F7D103A8801B203001905F
:10560000780701D5009801E00120009001998842B7
:1056100001DD401A00E000200027009006E002A80B
:10562000109AC05D0F9990476D1C7F1C0B988742A4
:10563000F5DB04E0109A30200F9990476D1C00991B
:10564000481E00900029F5DC05E03078109A761CA1
:105650000F9990476D1C0199481E01900029F4DCB8
:10566000641C65E70928010070B5074D0446C1B206
:105670002846FFF78AFE01212846FFF749FE002849
:10568000F9D0204670BD00000038014010B57D24DF
:10569000E4002046FFF7AAFCE12149022848FFF771
:1056A00083FEFBF7CFFF2146264C2068FBF746FF21
:1056B000401E81B22448FFF7E7FC2448FFF7FAFBBD
:1056C00023A0FFF709FF27A02168FFF705FF1F4C64
:1056D0002AA02168FFF700FF2EA06168FFF7FCFEFB
:1056E00032A0A168FFF7F8FE36A0E168FFF7F4FEEC
:1056F0003A48007800280CD0FBF7D4FF002808D1E6
:10570000FCF75EF8FBF7EAFF0446FCF735F8002CDF
:1057100000D1032431490D48891C0A7810380270E1
:105720004978417001460C222D48FFF709FB032CF4
:1057300004D02CA0FFF7D0FE002010BDFBF726FF01
:1057400000380140C0000020E703000000010020F5
:105750004150502069732072756E6E696E6720A388
:10576000A10D0A0053797374656D436F7265436CC4
:105770006F636B203D2025640D0A0000535953438D
:105780004C4B5F4672657175656E6379203D2025CF
:10579000640D0A0048434C4B5F4672657175656E37
:1057A0006379203D2025640D0A00000050434C4BD6
:1057B000315F4672657175656E6379203D202564A1
:1057C0000D0A000050434C4B325F4672657175659F
:1057D0006E6379203D2025640D0A0000D40000206E
:1057E0000010000853657420746865205265616478
:1057F0002050726F74656374206661696C65642003
:10580000A3A10D0A0000000028580008C0000020D5
:1058100030000000F854000858580008F00000203C
:105820002004000008550008006CDC0200000000A5
:105830000102030401020304060708090000000135
:10584000000100000000000000000000FF00000058
:08585000000000000000000050
:04000005080014B526
:00000001FF
