:020000040800F2
:1000000080050020C9000008F7000008FD00000876
:1000100003010008050100080701000800000000B6
:1000200000000000000000000000000009010008BE
:100030000F0100080000000011010008170100086E
:10004000D50800086D060008790600087504000848
:1000500085060008E5030008F1030008FD03000819
:10006000D9040008C1030008CD030008D903000823
:10007000AD010008CD060008D9060008E506000815
:10008000510700087D07000889070008A906000835
:10009000B9010008B5060008C1060008E50400081B
:1000A0007D030008910600089D06000895070008DA
:1000B000A10700080348854600F066F8004800479D
:1000C000510B000880050020154880F3088815486A
:1000D0000168090E144A9142FFD114481449016085
:1000E0001448154901601548134901600F48144927
:1000F0000160144800471448016808471348016824
:100100000847FEE7FEE7FEE7114801680847FEE7FB
:10011000104801680847104801680847FEE70000DA
:1001200080050020040000001F0000001C10024099
:100130000000000418680040120000001C68004025
:1001400000000000B5000008081400080C140008A6
:100150002C140008381400083C14000830B50B4675
:10016000014600202022012409E00D46D5409D4291
:1001700005D31D469540491B254695404019154617
:10018000521E002DF1DC30BD064C0125064E05E067
:10019000E36807CC2B430C3C98471034B442F7D3A8
:1001A000FFF78CFFA80B0008C80B00080148006F80
:1001B00000470000000000200148006900470000DF
:1001C00080000020F8B52B4D04226978284600787D
:1001D000294F6C1E012902D0FF2903D004E000281A
:1001E00012D001E0FF280FD0012804D0FF2802D050
:1001F000002809D009E021A1384600F04CFB43203B
:1002000000F06EFB207000E02270002020562B4E84
:10021000401C030000F080FC06040D06112B0D1598
:1002200027A10BE030A1384600F035FB6878FF28A5
:1002300007D0304600F05CF903E033A1384600F007
:100240002AFB00202056002813D0042811D038A102
:10025000384600F020FB0020C043207000F018F961
:100260003B4800F0D1F800F00BF900F0F3F939A1A8
:10027000E4E7F8BDC1000020003801400D0A20204D
:100280003D3D3D3D20586D6F64656D426F6F746CF0
:100290006F616465722069732072756E6E696E6736
:1002A000202020202020202020202020203D3D3DF7
:1002B0003D3D3D3D3D0D0A0D0A00000000140008C3
:1002C0007472616E73706F72742070726F746F638A
:1002D0006F6C206E6F742073706563696669656406
:1002E0002121210D0A000000546865206C696E6BA5
:1002F000206973206E6F7420636F6E6E6563746522
:10030000642121210D0A0000546865207472616E19
:10031000736D697373696F6E207761732074657292
:100320006D696E617465642121210D0A0000000071
:100330004D616E75616C20726573746172742072A8
:10034000657175697265642121210D0A0000000044
:1003500000100008546F6F206D756368206572721D
:100360006F7220647572696E67207472616E736D4E
:10037000697373696F6E2121210D0A000148006ABB
:1003800000470000800000200022411802E00378AE
:100390009A18401C8842FAD3D0B2704770B5044610
:1003A0000020651803E02178641C00F081FAAC425B
:1003B000F9D3002100F07CFA002100F079FA70BD39
:1003C0000148406E00470000000000200148806E98
:1003D00000470000000000200148C06E00470000F8
:1003E000000000200148406D004700000000002090
:1003F0000148806D00470000000000200148C06DEA
:10040000004700000000002070B50D4E0546304644
:1004100000F04AF8042812D10A4C2069022108434E
:10042000206165612069402108432061304600F069
:100430003BF8012803D02169034A1140216170BDB6
:10044000FF0F000000200240FD1F000008490420AB
:10045000CA68D20701D001207047CA68520701D587
:1004600002207047C968C906FBD503207047000009
:10047000002002400148C06C00470000000000203E
:100480000248016980221143016170470020024047
:1004900003480249416003494160704723016745B1
:1004A00000200240AB89EFCD38B50446FFF7CEFF00
:1004B000FF2507E028460095401E0090FCD1FFF77D
:1004C000C5FF641E012803D0002C00D1052038BDD3
:1004D000002CEFD1FAE700000148006E0047000051
:1004E000000000200148C069004700008000002093
:1004F00010B54168134C090E082905D012A12046F9
:1005000000F0C9F900F0A6F801681D4A1140012267
:100510005207914211D11B49CA6852085200CA6061
:1005200021690222914321614168174AD160D16853
:100530009160006880F30888884714A1204600F085
:10054000AAF910BD003801404E6F74206120666C1E
:10055000617368206170706C69636174696F6E2C7F
:1005600020756E61626C6520746F206578656375B7
:100570007465212020202020202020200D0A00004A
:100580000000FE2F00040040C00000204170706C8D
:1005900069636174696F6E206572726F722C207569
:1005A0006E61626C6520746F206578656375746533
:1005B000210D0A00FEB50B00054626D0FFF768FFA7
:1005C000D003000C0024114F0193009018E0019813
:1005D0006100465A0F20FFF767FF04280DD13869E4
:1005E0000121084338612E800F20FFF75DFF0128AD
:1005F00003D03869064908403861641CA4B2AD1CB8
:1006000000988442E3D3FFF73BFFFEBD0020024089
:10061000FE1F000030B5CC06E40E0123A340002AE3
:1006200010D08C08094AA400A21814688907C90EC2
:10063000FF258D408007000EAC43884004431460C2
:10064000034801E002488030036030BD00E400E070
:1006500000E100E0BFF34F8F03490248C860BFF3D9
:100660004F8FFEE70400FA0500ED00E00148406C02
:1006700000470000000000200148806C0047000097
:10068000000000200148006D00470000000000202D
:100690000148406A00470000800000200148806A4D
:1006A00000470000800000200148C06800470000AB
:1006B00080000020014840690047000080000020C1
:1006C0000148806900470000800000200148406F19
:1006D00000470000000000200148806F0047000034
:1006E000000000200148C06F00470000000000200B
:1006F00010B51148C16902221143C1610F4C642039
:10070000E0620F487D2109010068FFF727FDA06224
:100710000C482061E16801221143E160002161621F
:1007200021680140216009480749016010211046F5
:10073000FFF770FF10BD00000010024000040040F1
:10074000D4000020FEFF00005D07000880000020AC
:10075000014800680047000080000020044801694B
:10076000C90704D00349016103490120087070479B
:1007700000040040FEFF0000DC000020014840684B
:10078000004700008000002001488068004700000A
:10079000800000200148C06A00470000800000205F
:1007A0000148006B004700008000002070B5204D1C
:1007B000A8423CD11F4CA269012080030243A261E0
:1007C000E2680243E260E2688243E260A8691822BC
:1007D0001043A861E86930221043E86116480068B8
:1007E000FFF7BCFC010929620007000F686260691D
:1007F0000121490408436061A06901231843A061F5
:100800000920C006426AFF2109018A434262426A06
:10081000FF2411342243426242688A4342604168A5
:100820008B22120111434160A8691843A86170BD71
:100830000038014000100240D400002030B50023F1
:100840000E4C1D466362E162216801221143216062
:100850000B4907E0C268920704D54268D3B202226E
:10086000426102E00A78012AF4D12068054A10406A
:10087000206065620D70184630BD00000004004025
:10088000DC000020FEFF00000160C168C907FCD049
:1008900001214161704700B50A46034603E018464E
:1008A000FFF7F2FF521C11780029F8D100BD0000BB
:1008B000074AFF31013140004900CB0500D5401CFB
:1008C000C30300D55040CB03F5D580B2704700007C
:1008D000211000000148006C0047000000000020CB
:1008E000F0B5A7B001212591009100218026764D19
:1008F000764C01910291432804D0152803D10020A1
:1009000025901520A07072A17348FFF7C4FF7D27C2
:10091000FF007D2109017048FFF790FF0406240EB7
:100920000FD06E4801686E4A11400160002141629B
:10093000012C26D0002F0DD0422C17D0622C15D0C0
:10094000AEE0624881786448FFF79EFF7F1E3F0457
:100950003F0CDED1604C63A12046FFF79CFF5CA1F9
:100960002046FFF798FF012027B0F0BD5A4C63A145
:100970002046FFF790FF56A12046FFF78CFF02208C
:10098000F2E768460473002403AF0D215248FFF7D5
:1009900055FF3919641CA4B24870852CF5D36946FB
:1009A000487B897BC943C9B288427CD1009988427F
:1009B00079D103AC2598033400283146204608D06D
:1009C000FFF7ECFCA15D0A02A1194978511889B220
:1009D00002E0FFF7D9FCA15D88426DD13B4F4C4C42
:1009E0003878042812D10098072140074907C842E7
:1009F0000CD1FFF74DFD787880020019FFF704FD58
:100A00003870FFF73DFD7878401C7870009803AA95
:100A1000401CC0B2009000200EE01118CB782B7063
:100A20004B796D1C1A2B05D10B791A2B02D1C97881
:100A30001A2918D0401C80B2B042EED30298002888
:100A400016D00198FA78704300193C461E49D21E10
:100A5000FFF7B0FD0098E178801E7043C91E401872
:100A60002C49086010E0C01CF87001200290E8E7F3
:100A700001983246704300191349FFF79BFD019816
:100A8000114D401CC0B2019006211348FFF7FCFE37
:100A9000114F82213846FFF7D1FE0406240EF8D00C
:100AA000012C01D16DE707E00B4D21462846FFF7E9
:100AB000EBFE042C02D005E01521E6E706212846CE
:100AC000FFF7E2FE00204FE7E0000020D800002002
:100AD0000A0D2D3E000000000038014000040040D7
:100AE000FEFF00000A0D2D3E5472616E736D697435
:100AF0002054696D65204F75742121000A0D2D3E2B
:100B0000557365722043616E63656C6564212100D5
:100B100000140008D000002030B47446641E25780C
:100B2000641CAB4200D21D46635D5B00E31830BC21
:100B3000184702E008C8121F08C1002AFAD17047FE
:100B40007047002001E001C1121F002AFBD170474D
:100B500010B50D4CE12149022046FFF727FEFFF7B3
:100B6000C7FD0AA12046FFF796FE0D4802780D4901
:100B70000A7042784A708278CA70C0788870FFF72D
:100B800021FB002010BD000000380140424F4F54AF
:100B90002069732072756E6E696E6720210D0A00E0
:100BA00000100008C1000020C80B0008C000002091
:100BB00020000000320B0008E80B0008E0000020D5
:100BC000A0040000420B0008FF000000010000002C
:100BD00000000000000000000000000000127A0089
:080BE0000400430000000000C6
:04000005080000B53A
:00000001FF
